:030000000200609B
:03000B0002009957
:10006000C2AFE58954F84401F589758A00758CF0B2
:10007000757F00D28CD2A9D2AF63900F75F07074E7
:10008000FFD5E0FDD5F0F880F06390F075F03074A6
:10009000FFD5E0FDD5F0F880F0C083C082C0E0E578
:1000A0007F6003020126D0E0908000F0D0E0A3F052
:1000B000D0E0A3F0A3E5F0F0A3E5D0F0D0E0A3F00A
:1000C000D0E0A3F0A3E581F0A3E8F075F06F78012C
:1000D000A3E6F008D5F0F99080EF75F06F786FE047
:1000E000F6181201A6D5F0F7E0F81201A6E0F581A6
:1000F0001201A6E0C0E01201A6E0C0E01201A6E0F5
:10010000F5D01201A6E0F5F01201A6E0C0E0120160
:10011000A6E0C0E01201A6E0D082D083757FFF7513
:100120008A00758CF032D0E0908078F0D0E0A3F0B7
:10013000D0E0A3F0A3E5F0F0A3E5D0F0D0E0A3F089
:10014000D0E0A3F0A3E581F0A3E8F075F06F7801AB
:10015000A3E6F008D5F0F990807775F06F786FE03E
:10016000F6181201A6D5F0F7E0F81201A6E0F58125
:100170001201A6E0C0E01201A6E0C0E01201A6E074
:10018000F5D01201A6E0F5F01201A6E0C0E01201E0
:10019000A6E0C0E01201A6E0D082D083757F007592
:1001A0008A00758CF032C58214B4FF021583C582B3
:0101B000222C
:108000000000000000000007000000000000000069
:108010000000000000000000000000000000000060
:108020000000000000000000000000000000000050
:108030000000000000000000000000000000000040
:108040000000000000000000000000000000000030
:108050000000000000000000000000000000000020
:108060000000000000000000000000000000000010
:108070000000000000000000000000000000890770
:1080800000000000000000000000000000000000F0
:1080900000000000000000000000000000000000E0
:1080A00000000000000000000000000000000000D0
:1080B00000000000000000000000000000000000C0
:1080C00000000000000000000000000000000000B0
:1080D00000000000000000000000000000000000A0
:1080E0000000000000000000000000000000000090
:00000001FF
